{
  "contractName": "PetsVault",
  "abi": [
    {
      "constant": true,
      "inputs": [
        {
          "name": "",
          "type": "bytes32"
        }
      ],
      "name": "chips",
      "outputs": [
        {
          "name": "",
          "type": "uint256"
        }
      ],
      "payable": false,
      "stateMutability": "view",
      "type": "function"
    },
    {
      "constant": true,
      "inputs": [
        {
          "name": "",
          "type": "uint256"
        }
      ],
      "name": "pets",
      "outputs": [
        {
          "name": "guid",
          "type": "uint256"
        },
        {
          "name": "name",
          "type": "string"
        },
        {
          "name": "breed",
          "type": "string"
        },
        {
          "name": "chipId",
          "type": "string"
        },
        {
          "name": "sex",
          "type": "string"
        },
        {
          "name": "birthDate",
          "type": "uint256"
        },
        {
          "name": "species",
          "type": "string"
        },
        {
          "name": "imageUrl",
          "type": "string"
        },
        {
          "name": "owner",
          "type": "address"
        }
      ],
      "payable": false,
      "stateMutability": "view",
      "type": "function"
    },
    {
      "constant": true,
      "inputs": [
        {
          "name": "",
          "type": "address"
        },
        {
          "name": "",
          "type": "uint256"
        }
      ],
      "name": "ownership",
      "outputs": [
        {
          "name": "",
          "type": "uint256"
        }
      ],
      "payable": false,
      "stateMutability": "view",
      "type": "function"
    },
    {
      "inputs": [],
      "payable": false,
      "stateMutability": "nonpayable",
      "type": "constructor"
    },
    {
      "anonymous": false,
      "inputs": [
        {
          "indexed": false,
          "name": "_guid",
          "type": "uint256"
        },
        {
          "indexed": false,
          "name": "_owner",
          "type": "address"
        }
      ],
      "name": "AddingPetStarted",
      "type": "event"
    },
    {
      "anonymous": false,
      "inputs": [
        {
          "indexed": false,
          "name": "_guid",
          "type": "uint256"
        },
        {
          "indexed": false,
          "name": "_owner",
          "type": "address"
        }
      ],
      "name": "PetExistsCheckingOwnerShip",
      "type": "event"
    },
    {
      "anonymous": false,
      "inputs": [
        {
          "indexed": false,
          "name": "_guid",
          "type": "uint256"
        },
        {
          "indexed": false,
          "name": "_owner",
          "type": "address"
        }
      ],
      "name": "AssigningNewPetToOwner",
      "type": "event"
    },
    {
      "anonymous": false,
      "inputs": [
        {
          "indexed": false,
          "name": "_guid",
          "type": "uint256"
        },
        {
          "indexed": false,
          "name": "_owner",
          "type": "address"
        }
      ],
      "name": "CreatingOrUpdatingPetObject",
      "type": "event"
    },
    {
      "anonymous": false,
      "inputs": [
        {
          "indexed": false,
          "name": "_guid",
          "type": "uint256"
        },
        {
          "indexed": false,
          "name": "_owner",
          "type": "address"
        }
      ],
      "name": "AssigningNewPetToPetVault",
      "type": "event"
    },
    {
      "anonymous": false,
      "inputs": [
        {
          "indexed": false,
          "name": "_guid",
          "type": "uint256"
        },
        {
          "indexed": false,
          "name": "_chipId",
          "type": "string"
        }
      ],
      "name": "AssigningChipIdList",
      "type": "event"
    },
    {
      "anonymous": false,
      "inputs": [
        {
          "indexed": false,
          "name": "_guid",
          "type": "uint256"
        },
        {
          "indexed": false,
          "name": "_owner",
          "type": "address"
        }
      ],
      "name": "ReturningPetSaved",
      "type": "event"
    },
    {
      "constant": false,
      "inputs": [
        {
          "name": "_guid",
          "type": "uint256"
        },
        {
          "name": "_name",
          "type": "string"
        },
        {
          "name": "_breed",
          "type": "string"
        },
        {
          "name": "_chipId",
          "type": "string"
        },
        {
          "name": "_sex",
          "type": "string"
        },
        {
          "name": "_birthDate",
          "type": "uint256"
        },
        {
          "name": "_species",
          "type": "string"
        },
        {
          "name": "_imageUrl",
          "type": "string"
        },
        {
          "name": "_owner",
          "type": "address"
        }
      ],
      "name": "add",
      "outputs": [],
      "payable": false,
      "stateMutability": "nonpayable",
      "type": "function"
    },
    {
      "constant": true,
      "inputs": [
        {
          "name": "_chipId",
          "type": "string"
        }
      ],
      "name": "byChipId",
      "outputs": [
        {
          "name": "",
          "type": "uint256"
        }
      ],
      "payable": false,
      "stateMutability": "view",
      "type": "function"
    },
    {
      "constant": true,
      "inputs": [],
      "name": "noPets",
      "outputs": [
        {
          "name": "",
          "type": "uint256"
        }
      ],
      "payable": false,
      "stateMutability": "view",
      "type": "function"
    }
  ],
  "bytecode": "0x608060405234801561001057600080fd5b5061139e806100206000396000f300608060405260043610610078576000357c0100000000000000000000000000000000000000000000000000000000900463ffffffff1680630d41a67c1461007d578063bbab8371146100a8578063cfb869bf146100ed578063d49d41fa146103f0578063e6d496da146105eb578063ee9bfc8c14610668575b600080fd5b34801561008957600080fd5b506100926106c9565b6040518082815260200191505060405180910390f35b3480156100b457600080fd5b506100d76004803603810190808035600019169060200190929190505050610713565b6040518082815260200191505060405180910390f35b3480156100f957600080fd5b506101186004803603810190808035906020019092919050505061072b565b604051808a81526020018060200180602001806020018060200189815260200180602001806020018873ffffffffffffffffffffffffffffffffffffffff1673ffffffffffffffffffffffffffffffffffffffff16815260200187810387528f818151815260200191508051906020019080838360005b838110156101aa57808201518184015260208101905061018f565b50505050905090810190601f1680156101d75780820380516001836020036101000a031916815260200191505b5087810386528e818151815260200191508051906020019080838360005b838110156102105780820151818401526020810190506101f5565b50505050905090810190601f16801561023d5780820380516001836020036101000a031916815260200191505b5087810385528d818151815260200191508051906020019080838360005b8381101561027657808201518184015260208101905061025b565b50505050905090810190601f1680156102a35780820380516001836020036101000a031916815260200191505b5087810384528c818151815260200191508051906020019080838360005b838110156102dc5780820151818401526020810190506102c1565b50505050905090810190601f1680156103095780820380516001836020036101000a031916815260200191505b5087810383528a818151815260200191508051906020019080838360005b83811015610342578082015181840152602081019050610327565b50505050905090810190601f16801561036f5780820380516001836020036101000a031916815260200191505b50878103825289818151815260200191508051906020019080838360005b838110156103a857808201518184015260208101905061038d565b50505050905090810190601f1680156103d55780820380516001836020036101000a031916815260200191505b509f5050505050505050505050505050505060405180910390f35b3480156103fc57600080fd5b506105e960048036038101908080359060200190929190803590602001908201803590602001908080601f0160208091040260200160405190810160405280939291908181526020018383808284378201915050505050509192919290803590602001908201803590602001908080601f0160208091040260200160405190810160405280939291908181526020018383808284378201915050505050509192919290803590602001908201803590602001908080601f0160208091040260200160405190810160405280939291908181526020018383808284378201915050505050509192919290803590602001908201803590602001908080601f016020809104026020016040519081016040528093929190818152602001838380828437820191505050505050919291929080359060200190929190803590602001908201803590602001908080601f0160208091040260200160405190810160405280939291908181526020018383808284378201915050505050509192919290803590602001908201803590602001908080601f0160208091040260200160405190810160405280939291908181526020018383808284378201915050505050509192919290803573ffffffffffffffffffffffffffffffffffffffff169060200190929190505050610b29565b005b3480156105f757600080fd5b50610652600480360381019080803590602001908201803590602001908080601f01602080910402602001604051908101604052809392919081815260200183838082843782019150505050505091929192905050506111ae565b6040518082815260200191505060405180910390f35b34801561067457600080fd5b506106b3600480360381019080803573ffffffffffffffffffffffffffffffffffffffff1690602001909291908035906020019092919050505061120f565b6040518082815260200191505060405180910390f35b6000600260003373ffffffffffffffffffffffffffffffffffffffff1673ffffffffffffffffffffffffffffffffffffffff16815260200190815260200160002080549050905090565b60016020528060005260406000206000915090505481565b6000602052806000526040600020600091509050806000015490806001018054600181600116156101000203166002900480601f0160208091040260200160405190810160405280929190818152602001828054600181600116156101000203166002900480156107dd5780601f106107b2576101008083540402835291602001916107dd565b820191906000526020600020905b8154815290600101906020018083116107c057829003601f168201915b505050505090806002018054600181600116156101000203166002900480601f01602080910402602001604051908101604052809291908181526020018280546001816001161561010002031660029004801561087b5780601f106108505761010080835404028352916020019161087b565b820191906000526020600020905b81548152906001019060200180831161085e57829003601f168201915b505050505090806003018054600181600116156101000203166002900480601f0160208091040260200160405190810160405280929190818152602001828054600181600116156101000203166002900480156109195780601f106108ee57610100808354040283529160200191610919565b820191906000526020600020905b8154815290600101906020018083116108fc57829003601f168201915b505050505090806004018054600181600116156101000203166002900480601f0160208091040260200160405190810160405280929190818152602001828054600181600116156101000203166002900480156109b75780601f1061098c576101008083540402835291602001916109b7565b820191906000526020600020905b81548152906001019060200180831161099a57829003601f168201915b505050505090806005015490806006018054600181600116156101000203166002900480601f016020809104026020016040519081016040528092919081815260200182805460018160011615610100020316600290048015610a5b5780601f10610a3057610100808354040283529160200191610a5b565b820191906000526020600020905b815481529060010190602001808311610a3e57829003601f168201915b505050505090806007018054600181600116156101000203166002900480601f016020809104026020016040519081016040528092919081815260200182805460018160011615610100020316600290048015610af95780601f10610ace57610100808354040283529160200191610af9565b820191906000526020600020905b815481529060010190602001808311610adc57829003601f168201915b5050505050908060080160009054906101000a900473ffffffffffffffffffffffffffffffffffffffff16905089565b610b3161126a565b60007fc993b8a05937ced8688c34a3271613661f150e5cea31a49ff4e49fdb29c1f7d08b84604051808381526020018273ffffffffffffffffffffffffffffffffffffffff1673ffffffffffffffffffffffffffffffffffffffff1681526020019250505060405180910390a160008b14151515610bae57600080fd5b600073ffffffffffffffffffffffffffffffffffffffff168373ffffffffffffffffffffffffffffffffffffffff1614151515610bea57600080fd5b600073ffffffffffffffffffffffffffffffffffffffff166000808d815260200190815260200160002060080160009054906101000a900473ffffffffffffffffffffffffffffffffffffffff1673ffffffffffffffffffffffffffffffffffffffff16141515610d34577fc97a9b6657c5b1690a2def645860405bff0c292afdc281701c53689600cc4cbf8b84604051808381526020018273ffffffffffffffffffffffffffffffffffffffff1673ffffffffffffffffffffffffffffffffffffffff1681526020019250505060405180910390a18273ffffffffffffffffffffffffffffffffffffffff166000808d815260200190815260200160002060080160009054906101000a900473ffffffffffffffffffffffffffffffffffffffff1673ffffffffffffffffffffffffffffffffffffffff16141515610d2f57600080fd5b610e09565b7f0f2e2927957f2fa4ffa042fad40ed61b493b11619ea461aa5aea0add620ac2638b84604051808381526020018273ffffffffffffffffffffffffffffffffffffffff1673ffffffffffffffffffffffffffffffffffffffff1681526020019250505060405180910390a1600260008473ffffffffffffffffffffffffffffffffffffffff1673ffffffffffffffffffffffffffffffffffffffff1681526020019081526020016000208b90806001815401808255809150509060018203906000526020600020016000909192909190915055505b7f0d8d8851e1a5cfb9f599492b2e258b9cd9d3222b573585637afd76c0795cd05b8b84604051808381526020018273ffffffffffffffffffffffffffffffffffffffff1673ffffffffffffffffffffffffffffffffffffffff1681526020019250505060405180910390a1610120604051908101604052808c81526020018b81526020018a81526020018981526020018881526020018781526020018681526020018581526020018473ffffffffffffffffffffffffffffffffffffffff1681525091507f2589aac54d2c1a2167df05003e810dbf328d62117bf9bb7bdc2968668eb12cb18b84604051808381526020018273ffffffffffffffffffffffffffffffffffffffff1673ffffffffffffffffffffffffffffffffffffffff1681526020019250505060405180910390a1816000808d8152602001908152602001600020600082015181600001556020820151816001019080519060200190610f719291906112cd565b506040820151816002019080519060200190610f8e9291906112cd565b506060820151816003019080519060200190610fab9291906112cd565b506080820151816004019080519060200190610fc89291906112cd565b5060a0820151816005015560c0820151816006019080519060200190610fef9291906112cd565b5060e082015181600701908051906020019061100c9291906112cd565b506101008201518160080160006101000a81548173ffffffffffffffffffffffffffffffffffffffff021916908373ffffffffffffffffffffffffffffffffffffffff1602179055509050506110618861123f565b90506000602060ff16141515611136577f48ed1ca18eae4152f8fbf535fa95ac9085979fcfb20b1748905a0d530e7eaaf58b896040518083815260200180602001828103825283818151815260200191508051906020019080838360005b838110156110da5780820151818401526020810190506110bf565b50505050905090810190601f1680156111075780820380516001836020036101000a031916815260200191505b50935050505060405180910390a18a600160008360001916600019168152602001908152602001600020819055505b7fa1c30cff4d144cf15c6f4eb61e7828fd184a9eff9f16db2c832828d64507a59a8b84604051808381526020018273ffffffffffffffffffffffffffffffffffffffff1673ffffffffffffffffffffffffffffffffffffffff1681526020019250505060405180910390a15050505050505050505050565b6000806111ba8361123f565b905060006001600083600019166000191681526020019081526020016000205414151561120457600160008260001916600019168152602001908152602001600020549150611209565b600091505b50919050565b60026020528160005260406000208181548110151561122a57fe5b90600052602060002001600091509150505481565b6000606082905060008151141561125c5760006001029150611264565b602083015191505b50919050565b610120604051908101604052806000815260200160608152602001606081526020016060815260200160608152602001600081526020016060815260200160608152602001600073ffffffffffffffffffffffffffffffffffffffff1681525090565b828054600181600116156101000203166002900490600052602060002090601f016020900481019282601f1061130e57805160ff191683800117855561133c565b8280016001018555821561133c579182015b8281111561133b578251825591602001919060010190611320565b5b509050611349919061134d565b5090565b61136f91905b8082111561136b576000816000905550600101611353565b5090565b905600a165627a7a72305820ec2ed03d93b7eac6dbc9aaa734eaaff9da33b863f9968b11156497c4434fcbfe0029",
  "source": "pragma solidity ^0.4.23;\ncontract PetsVault {\n\n  struct Pet {\n    uint256 guid;\n    string name;\n    string breed;\n    string chipId;\n    string sex;\n    uint256 birthDate;\n    string species;\n    string imageUrl;\n    address owner;\n  }\n\n  event AddingPetStarted(uint256 _guid, address _owner);\n  event PetExistsCheckingOwnerShip(uint256 _guid, address _owner);\n  event AssigningNewPetToOwner(uint256 _guid, address _owner);\n  event CreatingOrUpdatingPetObject(uint256 _guid, address _owner);\n  event AssigningNewPetToPetVault(uint256 _guid, address _owner);\n  event AssigningChipIdList(uint256 _guid, string _chipId);\n  event ReturningPetSaved(uint256 _guid, address _owner);\n\n  // id => pet mapping\n  mapping(uint256 => Pet) public pets;\n\n  // chipId => id mapping\n  mapping(bytes32 => uint256) public chips;\n\n  // owner => id mapping for owned pets\n  mapping(address => uint256[]) public ownership;\n\n  constructor() public {\n  }\n\n  function add(\n    uint256 _guid,\n    string _name,\n    string _breed,\n    string _chipId,\n    string _sex,\n    uint256 _birthDate,\n    string _species,\n    string _imageUrl,\n    address _owner) public {\n\n    emit AddingPetStarted(_guid, _owner);\n\n    require(_guid != 0);\n    require(_owner != address(0));\n\n    if(pets[_guid].owner != address(0)) {\n      emit PetExistsCheckingOwnerShip(_guid, _owner);\n      require(pets[_guid].owner == _owner);\n    } else {\n      emit AssigningNewPetToOwner(_guid, _owner);\n      ownership[_owner].push(_guid);\n    }\n\n    emit CreatingOrUpdatingPetObject(_guid, _owner);\n    Pet memory _pet = Pet(\n      _guid, _name, _breed, _chipId, _sex, _birthDate, _species,\n      _imageUrl, _owner);\n\n    emit AssigningNewPetToPetVault(_guid, _owner);\n    pets[_guid] = _pet;\n\n    bytes32 _chipBytes = stringToBytes32(_chipId);\n    if (_chipBytes.length != 0) {\n      emit AssigningChipIdList(_guid, _chipId);\n      chips[_chipBytes] = _guid;\n    }\n\n    emit ReturningPetSaved(_guid, _owner);\n  }\n\n  function byChipId(string _chipId) public view returns (uint256) {\n    bytes32 _chipBytes = stringToBytes32(_chipId);\n    if (chips[_chipBytes] != 0) {\n      return chips[_chipBytes];\n    }\n    return 0;\n  }\n\n  function noPets() public view returns (uint256) {\n    return ownership[msg.sender].length;\n  }\n\n  function stringToBytes32(string memory source) internal returns (bytes32 result) {\n      bytes memory tempEmptyStringTest = bytes(source);\n      if (tempEmptyStringTest.length == 0) {\n          return 0x0;\n      }\n\n      assembly {\n          result := mload(add(source, 32))\n      }\n  }\n\n}\n",
  "sourcePath": "/Users/vytalk/Projects/petsourceapi/contracts/PetsVault.sol",
  "compiler": {
    "name": "solc",
    "version": "0.4.24+commit.e67f0147.Emscripten.clang"
  },
  "schemaVersion": "2.0.0",
  "updatedAt": "2018-06-17T17:15:35.841Z"
}