{
  "contractName": "PetsVault",
  "abi": [
    {
      "constant": true,
      "inputs": [
        {
          "name": "",
          "type": "bytes32"
        }
      ],
      "name": "guids",
      "outputs": [
        {
          "name": "",
          "type": "uint256"
        }
      ],
      "payable": false,
      "stateMutability": "view",
      "type": "function"
    },
    {
      "constant": true,
      "inputs": [
        {
          "name": "",
          "type": "bytes32"
        }
      ],
      "name": "chips",
      "outputs": [
        {
          "name": "",
          "type": "uint256"
        }
      ],
      "payable": false,
      "stateMutability": "view",
      "type": "function"
    },
    {
      "constant": true,
      "inputs": [],
      "name": "petCount",
      "outputs": [
        {
          "name": "",
          "type": "uint256"
        }
      ],
      "payable": false,
      "stateMutability": "view",
      "type": "function"
    },
    {
      "constant": true,
      "inputs": [
        {
          "name": "",
          "type": "uint256"
        }
      ],
      "name": "pets",
      "outputs": [
        {
          "name": "guid",
          "type": "string"
        },
        {
          "name": "name",
          "type": "string"
        },
        {
          "name": "breed",
          "type": "string"
        },
        {
          "name": "chipId",
          "type": "string"
        },
        {
          "name": "sex",
          "type": "string"
        },
        {
          "name": "birthDate",
          "type": "uint256"
        },
        {
          "name": "imageUrl",
          "type": "string"
        },
        {
          "name": "owner",
          "type": "address"
        }
      ],
      "payable": false,
      "stateMutability": "view",
      "type": "function"
    },
    {
      "constant": true,
      "inputs": [
        {
          "name": "",
          "type": "address"
        },
        {
          "name": "",
          "type": "uint256"
        }
      ],
      "name": "ownership",
      "outputs": [
        {
          "name": "",
          "type": "uint256"
        }
      ],
      "payable": false,
      "stateMutability": "view",
      "type": "function"
    },
    {
      "inputs": [],
      "payable": false,
      "stateMutability": "nonpayable",
      "type": "constructor"
    },
    {
      "anonymous": false,
      "inputs": [
        {
          "indexed": false,
          "name": "_guid",
          "type": "string"
        },
        {
          "indexed": false,
          "name": "_owner",
          "type": "address"
        }
      ],
      "name": "AddingPetStarted",
      "type": "event"
    },
    {
      "anonymous": false,
      "inputs": [
        {
          "indexed": false,
          "name": "_guid",
          "type": "string"
        },
        {
          "indexed": false,
          "name": "_owner",
          "type": "address"
        }
      ],
      "name": "PetExistsCheckingOwnerShip",
      "type": "event"
    },
    {
      "anonymous": false,
      "inputs": [
        {
          "indexed": false,
          "name": "_guid",
          "type": "string"
        },
        {
          "indexed": false,
          "name": "_owner",
          "type": "address"
        }
      ],
      "name": "AssigningNewPetToOwner",
      "type": "event"
    },
    {
      "anonymous": false,
      "inputs": [
        {
          "indexed": false,
          "name": "_guid",
          "type": "string"
        },
        {
          "indexed": false,
          "name": "_owner",
          "type": "address"
        }
      ],
      "name": "CreatingOrUpdatingPetObject",
      "type": "event"
    },
    {
      "anonymous": false,
      "inputs": [
        {
          "indexed": false,
          "name": "_guid",
          "type": "string"
        },
        {
          "indexed": false,
          "name": "_owner",
          "type": "address"
        }
      ],
      "name": "AssigningNewPetToPetVault",
      "type": "event"
    },
    {
      "anonymous": false,
      "inputs": [
        {
          "indexed": false,
          "name": "_guid",
          "type": "string"
        },
        {
          "indexed": false,
          "name": "_chipId",
          "type": "string"
        }
      ],
      "name": "AssigningChipIdList",
      "type": "event"
    },
    {
      "anonymous": false,
      "inputs": [
        {
          "indexed": false,
          "name": "_guid",
          "type": "string"
        },
        {
          "indexed": false,
          "name": "_owner",
          "type": "address"
        }
      ],
      "name": "ReturningPetSaved",
      "type": "event"
    },
    {
      "constant": false,
      "inputs": [
        {
          "name": "_guid",
          "type": "string"
        },
        {
          "name": "_name",
          "type": "string"
        },
        {
          "name": "_breed",
          "type": "string"
        },
        {
          "name": "_chipId",
          "type": "string"
        },
        {
          "name": "_sex",
          "type": "string"
        },
        {
          "name": "_birthDate",
          "type": "uint256"
        },
        {
          "name": "_imageUrl",
          "type": "string"
        },
        {
          "name": "_owner",
          "type": "address"
        }
      ],
      "name": "add",
      "outputs": [],
      "payable": false,
      "stateMutability": "nonpayable",
      "type": "function"
    },
    {
      "constant": true,
      "inputs": [
        {
          "name": "_guid",
          "type": "string"
        }
      ],
      "name": "byGuid",
      "outputs": [
        {
          "name": "",
          "type": "uint256"
        }
      ],
      "payable": false,
      "stateMutability": "view",
      "type": "function"
    },
    {
      "constant": true,
      "inputs": [
        {
          "name": "_chipId",
          "type": "string"
        }
      ],
      "name": "byChipId",
      "outputs": [
        {
          "name": "",
          "type": "uint256"
        }
      ],
      "payable": false,
      "stateMutability": "view",
      "type": "function"
    },
    {
      "constant": true,
      "inputs": [],
      "name": "noPets",
      "outputs": [
        {
          "name": "",
          "type": "uint256"
        }
      ],
      "payable": false,
      "stateMutability": "view",
      "type": "function"
    }
  ],
  "bytecode": "0x6080604052600060045534801561001557600080fd5b506117db806100256000396000f300608060405260043610610099576000357c0100000000000000000000000000000000000000000000000000000000900463ffffffff1680630d41a67c1461009e5780632fb3c52e146100c9578063687ab7eb146102ba5780636b0fdbe0146102ff578063bbab83711461037c578063cd619f58146103c1578063cfb869bf146103ec578063e6d496da146106e8578063ee9bfc8c14610765575b600080fd5b3480156100aa57600080fd5b506100b36107c6565b6040518082815260200191505060405180910390f35b3480156100d557600080fd5b506102b8600480360381019080803590602001908201803590602001908080601f0160208091040260200160405190810160405280939291908181526020018383808284378201915050505050509192919290803590602001908201803590602001908080601f0160208091040260200160405190810160405280939291908181526020018383808284378201915050505050509192919290803590602001908201803590602001908080601f0160208091040260200160405190810160405280939291908181526020018383808284378201915050505050509192919290803590602001908201803590602001908080601f0160208091040260200160405190810160405280939291908181526020018383808284378201915050505050509192919290803590602001908201803590602001908080601f016020809104026020016040519081016040528093929190818152602001838380828437820191505050505050919291929080359060200190929190803590602001908201803590602001908080601f0160208091040260200160405190810160405280939291908181526020018383808284378201915050505050509192919290803573ffffffffffffffffffffffffffffffffffffffff169060200190929190505050610810565b005b3480156102c657600080fd5b506102e96004803603810190808035600019169060200190929190505050611163565b6040518082815260200191505060405180910390f35b34801561030b57600080fd5b50610366600480360381019080803590602001908201803590602001908080601f016020809104026020016040519081016040528093929190818152602001838380828437820191505050505050919291929050505061117b565b6040518082815260200191505060405180910390f35b34801561038857600080fd5b506103ab60048036038101908080356000191690602001909291905050506111dc565b6040518082815260200191505060405180910390f35b3480156103cd57600080fd5b506103d66111f4565b6040518082815260200191505060405180910390f35b3480156103f857600080fd5b50610417600480360381019080803590602001909291905050506111fa565b604051808060200180602001806020018060200180602001898152602001806020018873ffffffffffffffffffffffffffffffffffffffff1673ffffffffffffffffffffffffffffffffffffffff16815260200187810387528f818151815260200191508051906020019080838360005b838110156104a3578082015181840152602081019050610488565b50505050905090810190601f1680156104d05780820380516001836020036101000a031916815260200191505b5087810386528e818151815260200191508051906020019080838360005b838110156105095780820151818401526020810190506104ee565b50505050905090810190601f1680156105365780820380516001836020036101000a031916815260200191505b5087810385528d818151815260200191508051906020019080838360005b8381101561056f578082015181840152602081019050610554565b50505050905090810190601f16801561059c5780820380516001836020036101000a031916815260200191505b5087810384528c818151815260200191508051906020019080838360005b838110156105d55780820151818401526020810190506105ba565b50505050905090810190601f1680156106025780820380516001836020036101000a031916815260200191505b5087810383528b818151815260200191508051906020019080838360005b8381101561063b578082015181840152602081019050610620565b50505050905090810190601f1680156106685780820380516001836020036101000a031916815260200191505b50878103825289818151815260200191508051906020019080838360005b838110156106a1578082015181840152602081019050610686565b50505050905090810190601f1680156106ce5780820380516001836020036101000a031916815260200191505b509e50505050505050505050505050505060405180910390f35b3480156106f457600080fd5b5061074f600480360381019080803590602001908201803590602001908080601f01602080910402602001604051908101604052809392919081815260200183838082843782019150505050505091929192905050506115f2565b6040518082815260200191505060405180910390f35b34801561077157600080fd5b506107b0600480360381019080803573ffffffffffffffffffffffffffffffffffffffff16906020019092919080359060200190929190505050611653565b6040518082815260200191505060405180910390f35b6000600360003373ffffffffffffffffffffffffffffffffffffffff1673ffffffffffffffffffffffffffffffffffffffff16815260200190815260200160002080549050905090565b60008061081b6116ae565b60007f4551a4079470fb549649241e6456b28258ae53595065a0cddd0b28b485e95fe98c8660405180806020018373ffffffffffffffffffffffffffffffffffffffff1673ffffffffffffffffffffffffffffffffffffffff168152602001828103825284818151815260200191508051906020019080838360005b838110156108b2578082015181840152602081019050610897565b50505050905090810190601f1680156108df5780820380516001836020036101000a031916815260200191505b50935050505060405180910390a16108f68c611683565b935060045492506000602060ff161415151561091157600080fd5b600073ffffffffffffffffffffffffffffffffffffffff168573ffffffffffffffffffffffffffffffffffffffff161415151561094d57600080fd5b600060016000866000191660001916815260200190815260200160002054141515610ad4577f8f198af4a91cd0262f987371735b8b6a845917986ae35eb68c28fb18ab2839838c8660405180806020018373ffffffffffffffffffffffffffffffffffffffff1673ffffffffffffffffffffffffffffffffffffffff168152602001828103825284818151815260200191508051906020019080838360005b83811015610a075780820151818401526020810190506109ec565b50505050905090810190601f168015610a345780820380516001836020036101000a031916815260200191505b50935050505060405180910390a16001600085600019166000191681526020019081526020016000205492508473ffffffffffffffffffffffffffffffffffffffff1660008085815260200190815260200160002060070160009054906101000a900473ffffffffffffffffffffffffffffffffffffffff1673ffffffffffffffffffffffffffffffffffffffff16141515610acf57600080fd5b610c1a565b7f825b7a01e4b8bb674692d77e65439389ef0ce96bf01645464e32e0cf81f286ee8c8660405180806020018373ffffffffffffffffffffffffffffffffffffffff1673ffffffffffffffffffffffffffffffffffffffff168152602001828103825284818151815260200191508051906020019080838360005b83811015610b69578082015181840152602081019050610b4e565b50505050905090810190601f168015610b965780820380516001836020036101000a031916815260200191505b50935050505060405180910390a1600360008673ffffffffffffffffffffffffffffffffffffffff1673ffffffffffffffffffffffffffffffffffffffff1681526020019081526020016000208390806001815401808255809150509060018203906000526020600020016000909192909190915055506001600454016004819055505b7fd747d5e92de34bffe2f426df807d96d94ed46e07384c2817991a7a3ac098ee0c8c8660405180806020018373ffffffffffffffffffffffffffffffffffffffff1673ffffffffffffffffffffffffffffffffffffffff168152602001828103825284818151815260200191508051906020019080838360005b83811015610caf578082015181840152602081019050610c94565b50505050905090810190601f168015610cdc5780820380516001836020036101000a031916815260200191505b50935050505060405180910390a1610100604051908101604052808d81526020018c81526020018b81526020018a81526020018981526020018881526020018781526020018673ffffffffffffffffffffffffffffffffffffffff1681525091507f45b3fbebf7c69c9a161e17e6f33623bedaacbcfd64525d850f895bea75b87c718c8660405180806020018373ffffffffffffffffffffffffffffffffffffffff1673ffffffffffffffffffffffffffffffffffffffff168152602001828103825284818151815260200191508051906020019080838360005b83811015610dd2578082015181840152602081019050610db7565b50505050905090810190601f168015610dff5780820380516001836020036101000a031916815260200191505b50935050505060405180910390a1816000808581526020019081526020016000206000820151816000019080519060200190610e3c92919061170a565b506020820151816001019080519060200190610e5992919061170a565b506040820151816002019080519060200190610e7692919061170a565b506060820151816003019080519060200190610e9392919061170a565b506080820151816004019080519060200190610eb092919061170a565b5060a0820151816005015560c0820151816006019080519060200190610ed792919061170a565b5060e08201518160070160006101000a81548173ffffffffffffffffffffffffffffffffffffffff021916908373ffffffffffffffffffffffffffffffffffffffff1602179055509050508260016000866000191660001916815260200190815260200160002081905550610f4b89611683565b90506000602060ff16141515611085577fb874161f7a2e6bd006e9d4dc804654d21ba2f58ce6f9ad4782f3a3fdfad867cd8c8a604051808060200180602001838103835285818151815260200191508051906020019080838360005b83811015610fc2578082015181840152602081019050610fa7565b50505050905090810190601f168015610fef5780820380516001836020036101000a031916815260200191505b50838103825284818151815260200191508051906020019080838360005b8381101561102857808201518184015260208101905061100d565b50505050905090810190601f1680156110555780820380516001836020036101000a031916815260200191505b5094505050505060405180910390a182600260008360001916600019168152602001908152602001600020819055505b7feb3181cff67a44f6068c00ab88fcdc7bc193915f045d04a6cf52d27a4eb292218c8660405180806020018373ffffffffffffffffffffffffffffffffffffffff1673ffffffffffffffffffffffffffffffffffffffff168152602001828103825284818151815260200191508051906020019080838360005b8381101561111a5780820151818401526020810190506110ff565b50505050905090810190601f1680156111475780820380516001836020036101000a031916815260200191505b50935050505060405180910390a1505050505050505050505050565b60016020528060005260406000206000915090505481565b60008061118783611683565b90506000600160008360001916600019168152602001908152602001600020541415156111d1576001600082600019166000191681526020019081526020016000205491506111d6565b600091505b50919050565b60026020528060005260406000206000915090505481565b60045481565b6000602052806000526040600020600091509050806000018054600181600116156101000203166002900480601f0160208091040260200160405190810160405280929190818152602001828054600181600116156101000203166002900480156112a65780601f1061127b576101008083540402835291602001916112a6565b820191906000526020600020905b81548152906001019060200180831161128957829003601f168201915b505050505090806001018054600181600116156101000203166002900480601f0160208091040260200160405190810160405280929190818152602001828054600181600116156101000203166002900480156113445780601f1061131957610100808354040283529160200191611344565b820191906000526020600020905b81548152906001019060200180831161132757829003601f168201915b505050505090806002018054600181600116156101000203166002900480601f0160208091040260200160405190810160405280929190818152602001828054600181600116156101000203166002900480156113e25780601f106113b7576101008083540402835291602001916113e2565b820191906000526020600020905b8154815290600101906020018083116113c557829003601f168201915b505050505090806003018054600181600116156101000203166002900480601f0160208091040260200160405190810160405280929190818152602001828054600181600116156101000203166002900480156114805780601f1061145557610100808354040283529160200191611480565b820191906000526020600020905b81548152906001019060200180831161146357829003601f168201915b505050505090806004018054600181600116156101000203166002900480601f01602080910402602001604051908101604052809291908181526020018280546001816001161561010002031660029004801561151e5780601f106114f35761010080835404028352916020019161151e565b820191906000526020600020905b81548152906001019060200180831161150157829003601f168201915b505050505090806005015490806006018054600181600116156101000203166002900480601f0160208091040260200160405190810160405280929190818152602001828054600181600116156101000203166002900480156115c25780601f10611597576101008083540402835291602001916115c2565b820191906000526020600020905b8154815290600101906020018083116115a557829003601f168201915b5050505050908060070160009054906101000a900473ffffffffffffffffffffffffffffffffffffffff16905088565b6000806115fe83611683565b90506000600260008360001916600019168152602001908152602001600020541415156116485760026000826000191660001916815260200190815260200160002054915061164d565b600091505b50919050565b60036020528160005260406000208181548110151561166e57fe5b90600052602060002001600091509150505481565b600060608290506000815114156116a057600060010291506116a8565b602083015191505b50919050565b6101006040519081016040528060608152602001606081526020016060815260200160608152602001606081526020016000815260200160608152602001600073ffffffffffffffffffffffffffffffffffffffff1681525090565b828054600181600116156101000203166002900490600052602060002090601f016020900481019282601f1061174b57805160ff1916838001178555611779565b82800160010185558215611779579182015b8281111561177857825182559160200191906001019061175d565b5b509050611786919061178a565b5090565b6117ac91905b808211156117a8576000816000905550600101611790565b5090565b905600a165627a7a72305820800809da98b9db95562e5f320d5c3fb47550666c68fed88c8656ba8851a9e9140029",
  "source": "pragma solidity ^0.4.23;\ncontract PetsVault {\n\n  struct Pet {\n    string guid;\n    string name;\n    string breed;\n    string chipId;\n    string sex;\n    uint256 birthDate;\n    string imageUrl;\n    address owner;\n  }\n\n  event AddingPetStarted(string _guid, address _owner);\n  event PetExistsCheckingOwnerShip(string _guid, address _owner);\n  event AssigningNewPetToOwner(string _guid, address _owner);\n  event CreatingOrUpdatingPetObject(string _guid, address _owner);\n  event AssigningNewPetToPetVault(string _guid, address _owner);\n  event AssigningChipIdList(string _guid, string _chipId);\n  event ReturningPetSaved(string _guid, address _owner);\n\n  // id => pet mapping\n  mapping(uint256 => Pet) public pets;\n\n  // guids => id mapping\n  mapping(bytes32 => uint256) public guids;\n\n  // chipId => id mapping\n  mapping(bytes32 => uint256) public chips;\n\n  // owner => id mapping for owned pets\n  mapping(address => uint256[]) public ownership;\n\n  uint256 public petCount = 0;\n\n  constructor() public {\n  }\n\n  function add(\n    string _guid,\n    string _name,\n    string _breed,\n    string _chipId,\n    string _sex,\n    uint256 _birthDate,\n    string _imageUrl,\n    address _owner) public {\n\n    emit AddingPetStarted(_guid, _owner);\n    bytes32 _guidBytes = stringToBytes32(_guid);\n\n    uint256 _petId = petCount;\n\n    require(_guidBytes.length != 0);\n    require(_owner != address(0));\n\n    if(guids[_guidBytes] != 0) {\n      emit PetExistsCheckingOwnerShip(_guid, _owner);\n      _petId = guids[_guidBytes];\n      require(pets[_petId].owner == _owner);\n    } else {\n      emit AssigningNewPetToOwner(_guid, _owner);\n      ownership[_owner].push(_petId);\n      petCount = petCount + 1;\n    }\n\n    emit CreatingOrUpdatingPetObject(_guid, _owner);\n    Pet memory _pet = Pet(\n      _guid, _name, _breed, _chipId, _sex, _birthDate,\n      _imageUrl, _owner);\n\n    emit AssigningNewPetToPetVault(_guid, _owner);\n    pets[_petId] = _pet;\n    guids[_guidBytes] = _petId;\n\n\n    bytes32 _chipBytes = stringToBytes32(_chipId);\n    if (_chipBytes.length != 0) {\n      emit AssigningChipIdList(_guid, _chipId);\n      chips[_chipBytes] = _petId;\n    }\n\n    emit ReturningPetSaved(_guid, _owner);\n  }\n\n  function byGuid(string _guid) public view returns (uint256) {\n    bytes32 _guidBytes = stringToBytes32(_guid);\n    if (guids[_guidBytes] != 0) {\n      return guids[_guidBytes];\n    }\n    return 0;\n  }\n\n  function byChipId(string _chipId) public view returns (uint256) {\n    bytes32 _chipBytes = stringToBytes32(_chipId);\n    if (chips[_chipBytes] != 0) {\n      return chips[_chipBytes];\n    }\n    return 0;\n  }\n\n  function noPets() public view returns (uint256) {\n    return ownership[msg.sender].length;\n  }\n\n  function stringToBytes32(string memory source) internal returns (bytes32 result) {\n      bytes memory tempEmptyStringTest = bytes(source);\n      if (tempEmptyStringTest.length == 0) {\n          return 0x0;\n      }\n\n      assembly {\n          result := mload(add(source, 32))\n      }\n  }\n\n}\n",
  "sourcePath": "/Users/vytalk/Projects/petsourceapi/contracts/PetsVault.sol",
  "compiler": {
    "name": "solc",
    "version": "0.4.24+commit.e67f0147.Emscripten.clang"
  },
  "schemaVersion": "2.0.0",
  "updatedAt": "2018-06-17T19:31:02.733Z"
}