{
  "contractName": "PetsVault",
  "abi": [
    {
      "constant": true,
      "inputs": [
        {
          "name": "",
          "type": "uint256"
        }
      ],
      "name": "pets",
      "outputs": [
        {
          "name": "name",
          "type": "string"
        },
        {
          "name": "breed",
          "type": "string"
        },
        {
          "name": "chipId",
          "type": "uint256"
        },
        {
          "name": "sex",
          "type": "string"
        },
        {
          "name": "birthDate",
          "type": "uint256"
        },
        {
          "name": "species",
          "type": "string"
        },
        {
          "name": "color",
          "type": "string"
        },
        {
          "name": "owner",
          "type": "address"
        }
      ],
      "payable": false,
      "stateMutability": "view",
      "type": "function"
    },
    {
      "constant": true,
      "inputs": [
        {
          "name": "",
          "type": "address"
        },
        {
          "name": "",
          "type": "uint256"
        }
      ],
      "name": "ownership",
      "outputs": [
        {
          "name": "",
          "type": "uint256"
        }
      ],
      "payable": false,
      "stateMutability": "view",
      "type": "function"
    },
    {
      "inputs": [],
      "payable": false,
      "stateMutability": "nonpayable",
      "type": "constructor"
    },
    {
      "anonymous": false,
      "inputs": [
        {
          "indexed": false,
          "name": "_chipId",
          "type": "uint256"
        },
        {
          "indexed": false,
          "name": "_owner",
          "type": "address"
        }
      ],
      "name": "AddingPetStarted",
      "type": "event"
    },
    {
      "anonymous": false,
      "inputs": [
        {
          "indexed": false,
          "name": "_chipId",
          "type": "uint256"
        },
        {
          "indexed": false,
          "name": "_owner",
          "type": "address"
        }
      ],
      "name": "PetExistsCheckingOwnerShip",
      "type": "event"
    },
    {
      "anonymous": false,
      "inputs": [
        {
          "indexed": false,
          "name": "_chipId",
          "type": "uint256"
        },
        {
          "indexed": false,
          "name": "_owner",
          "type": "address"
        }
      ],
      "name": "AssigningNewPetToOwner",
      "type": "event"
    },
    {
      "anonymous": false,
      "inputs": [
        {
          "indexed": false,
          "name": "_chipId",
          "type": "uint256"
        },
        {
          "indexed": false,
          "name": "_owner",
          "type": "address"
        }
      ],
      "name": "CreatingOrUpdatingPetObject",
      "type": "event"
    },
    {
      "anonymous": false,
      "inputs": [
        {
          "indexed": false,
          "name": "_chipId",
          "type": "uint256"
        },
        {
          "indexed": false,
          "name": "_owner",
          "type": "address"
        }
      ],
      "name": "AssigningNewPetToPetVault",
      "type": "event"
    },
    {
      "anonymous": false,
      "inputs": [
        {
          "indexed": false,
          "name": "_chipId",
          "type": "uint256"
        },
        {
          "indexed": false,
          "name": "_owner",
          "type": "address"
        }
      ],
      "name": "ReturningPetSaved",
      "type": "event"
    },
    {
      "constant": false,
      "inputs": [
        {
          "name": "_name",
          "type": "string"
        },
        {
          "name": "_breed",
          "type": "string"
        },
        {
          "name": "_chipId",
          "type": "uint256"
        },
        {
          "name": "_sex",
          "type": "string"
        },
        {
          "name": "_birthDate",
          "type": "uint256"
        },
        {
          "name": "_species",
          "type": "string"
        },
        {
          "name": "_color",
          "type": "string"
        },
        {
          "name": "_owner",
          "type": "address"
        }
      ],
      "name": "add",
      "outputs": [],
      "payable": false,
      "stateMutability": "nonpayable",
      "type": "function"
    },
    {
      "constant": true,
      "inputs": [],
      "name": "noPets",
      "outputs": [
        {
          "name": "",
          "type": "uint256"
        }
      ],
      "payable": false,
      "stateMutability": "view",
      "type": "function"
    }
  ],
  "bytecode": "0x608060405234801561001057600080fd5b50610fb5806100206000396000f300608060405260043610610062576000357c0100000000000000000000000000000000000000000000000000000000900463ffffffff1680630d41a67c146100675780635991acc114610092578063cfb869bf14610247578063ee9bfc8c146104de575b600080fd5b34801561007357600080fd5b5061007c61053f565b6040518082815260200191505060405180910390f35b34801561009e57600080fd5b50610245600480360381019080803590602001908201803590602001908080601f0160208091040260200160405190810160405280939291908181526020018383808284378201915050505050509192919290803590602001908201803590602001908080601f016020809104026020016040519081016040528093929190818152602001838380828437820191505050505050919291929080359060200190929190803590602001908201803590602001908080601f016020809104026020016040519081016040528093929190818152602001838380828437820191505050505050919291929080359060200190929190803590602001908201803590602001908080601f0160208091040260200160405190810160405280939291908181526020018383808284378201915050505050509192919290803590602001908201803590602001908080601f0160208091040260200160405190810160405280939291908181526020018383808284378201915050505050509192919290803573ffffffffffffffffffffffffffffffffffffffff169060200190929190505050610589565b005b34801561025357600080fd5b5061027260048036038101908080359060200190929190505050610af8565b6040518080602001806020018981526020018060200188815260200180602001806020018773ffffffffffffffffffffffffffffffffffffffff1673ffffffffffffffffffffffffffffffffffffffff16815260200186810386528e818151815260200191508051906020019080838360005b838110156103005780820151818401526020810190506102e5565b50505050905090810190601f16801561032d5780820380516001836020036101000a031916815260200191505b5086810385528d818151815260200191508051906020019080838360005b8381101561036657808201518184015260208101905061034b565b50505050905090810190601f1680156103935780820380516001836020036101000a031916815260200191505b5086810384528b818151815260200191508051906020019080838360005b838110156103cc5780820151818401526020810190506103b1565b50505050905090810190601f1680156103f95780820380516001836020036101000a031916815260200191505b50868103835289818151815260200191508051906020019080838360005b83811015610432578082015181840152602081019050610417565b50505050905090810190601f16801561045f5780820380516001836020036101000a031916815260200191505b50868103825288818151815260200191508051906020019080838360005b8381101561049857808201518184015260208101905061047d565b50505050905090810190601f1680156104c55780820380516001836020036101000a031916815260200191505b509d505050505050505050505050505060405180910390f35b3480156104ea57600080fd5b50610529600480360381019080803573ffffffffffffffffffffffffffffffffffffffff16906020019092919080359060200190929190505050610e58565b6040518082815260200191505060405180910390f35b6000600160003373ffffffffffffffffffffffffffffffffffffffff1673ffffffffffffffffffffffffffffffffffffffff16815260200190815260200160002080549050905090565b610591610e88565b7fc993b8a05937ced8688c34a3271613661f150e5cea31a49ff4e49fdb29c1f7d08783604051808381526020018273ffffffffffffffffffffffffffffffffffffffff1673ffffffffffffffffffffffffffffffffffffffff1681526020019250505060405180910390a1600073ffffffffffffffffffffffffffffffffffffffff168273ffffffffffffffffffffffffffffffffffffffff161415151561063857600080fd5b600073ffffffffffffffffffffffffffffffffffffffff1660008089815260200190815260200160002060070160009054906101000a900473ffffffffffffffffffffffffffffffffffffffff1673ffffffffffffffffffffffffffffffffffffffff16141515610782577fc97a9b6657c5b1690a2def645860405bff0c292afdc281701c53689600cc4cbf8783604051808381526020018273ffffffffffffffffffffffffffffffffffffffff1673ffffffffffffffffffffffffffffffffffffffff1681526020019250505060405180910390a18173ffffffffffffffffffffffffffffffffffffffff1660008089815260200190815260200160002060070160009054906101000a900473ffffffffffffffffffffffffffffffffffffffff1673ffffffffffffffffffffffffffffffffffffffff1614151561077d57600080fd5b610857565b7f0f2e2927957f2fa4ffa042fad40ed61b493b11619ea461aa5aea0add620ac2638783604051808381526020018273ffffffffffffffffffffffffffffffffffffffff1673ffffffffffffffffffffffffffffffffffffffff1681526020019250505060405180910390a1600160008373ffffffffffffffffffffffffffffffffffffffff1673ffffffffffffffffffffffffffffffffffffffff1681526020019081526020016000208790806001815401808255809150509060018203906000526020600020016000909192909190915055505b7f0d8d8851e1a5cfb9f599492b2e258b9cd9d3222b573585637afd76c0795cd05b8783604051808381526020018273ffffffffffffffffffffffffffffffffffffffff1673ffffffffffffffffffffffffffffffffffffffff1681526020019250505060405180910390a1610100604051908101604052808a81526020018981526020018881526020018781526020018681526020018581526020018481526020018373ffffffffffffffffffffffffffffffffffffffff1681525090507f2589aac54d2c1a2167df05003e810dbf328d62117bf9bb7bdc2968668eb12cb18783604051808381526020018273ffffffffffffffffffffffffffffffffffffffff1673ffffffffffffffffffffffffffffffffffffffff1681526020019250505060405180910390a18060008089815260200190815260200160002060008201518160000190805190602001906109af929190610ee4565b5060208201518160010190805190602001906109cc929190610ee4565b506040820151816002015560608201518160030190805190602001906109f3929190610ee4565b506080820151816004015560a0820151816005019080519060200190610a1a929190610ee4565b5060c0820151816006019080519060200190610a37929190610ee4565b5060e08201518160070160006101000a81548173ffffffffffffffffffffffffffffffffffffffff021916908373ffffffffffffffffffffffffffffffffffffffff1602179055509050507fa1c30cff4d144cf15c6f4eb61e7828fd184a9eff9f16db2c832828d64507a59a8783604051808381526020018273ffffffffffffffffffffffffffffffffffffffff1673ffffffffffffffffffffffffffffffffffffffff1681526020019250505060405180910390a1505050505050505050565b6000602052806000526040600020600091509050806000018054600181600116156101000203166002900480601f016020809104026020016040519081016040528092919081815260200182805460018160011615610100020316600290048015610ba45780601f10610b7957610100808354040283529160200191610ba4565b820191906000526020600020905b815481529060010190602001808311610b8757829003601f168201915b505050505090806001018054600181600116156101000203166002900480601f016020809104026020016040519081016040528092919081815260200182805460018160011615610100020316600290048015610c425780601f10610c1757610100808354040283529160200191610c42565b820191906000526020600020905b815481529060010190602001808311610c2557829003601f168201915b505050505090806002015490806003018054600181600116156101000203166002900480601f016020809104026020016040519081016040528092919081815260200182805460018160011615610100020316600290048015610ce65780601f10610cbb57610100808354040283529160200191610ce6565b820191906000526020600020905b815481529060010190602001808311610cc957829003601f168201915b505050505090806004015490806005018054600181600116156101000203166002900480601f016020809104026020016040519081016040528092919081815260200182805460018160011615610100020316600290048015610d8a5780601f10610d5f57610100808354040283529160200191610d8a565b820191906000526020600020905b815481529060010190602001808311610d6d57829003601f168201915b505050505090806006018054600181600116156101000203166002900480601f016020809104026020016040519081016040528092919081815260200182805460018160011615610100020316600290048015610e285780601f10610dfd57610100808354040283529160200191610e28565b820191906000526020600020905b815481529060010190602001808311610e0b57829003601f168201915b5050505050908060070160009054906101000a900473ffffffffffffffffffffffffffffffffffffffff16905088565b600160205281600052604060002081815481101515610e7357fe5b90600052602060002001600091509150505481565b6101006040519081016040528060608152602001606081526020016000815260200160608152602001600081526020016060815260200160608152602001600073ffffffffffffffffffffffffffffffffffffffff1681525090565b828054600181600116156101000203166002900490600052602060002090601f016020900481019282601f10610f2557805160ff1916838001178555610f53565b82800160010185558215610f53579182015b82811115610f52578251825591602001919060010190610f37565b5b509050610f609190610f64565b5090565b610f8691905b80821115610f82576000816000905550600101610f6a565b5090565b905600a165627a7a723058207827a0401ab82bfdd1c245207c9320a11941d72b86fd4cbd776e10ee54ada11a0029",
  "source": "pragma solidity ^0.4.23;\ncontract PetsVault {\n\n  struct Pet {\n    string name;\n    string breed;\n    uint256 chipId;\n    string sex;\n    uint256 birthDate;\n    string species;\n    string color;\n    address owner;\n  }\n\n  event AddingPetStarted(uint256 _chipId, address _owner);\n  event PetExistsCheckingOwnerShip(uint256 _chipId, address _owner);\n  event AssigningNewPetToOwner(uint256 _chipId, address _owner);\n  event CreatingOrUpdatingPetObject(uint256 _chipId, address _owner);\n  event AssigningNewPetToPetVault(uint256 _chipId, address _owner);\n  event ReturningPetSaved(uint256 _chipId, address _owner);\n\n  // chipId => pet mapping\n  mapping(uint256 => Pet) public pets;\n\n  // owner => chipId's mapping for owned pets\n  mapping(address => uint256[]) public ownership;\n\n  constructor() public {\n  }\n\n  function add(\n    string _name,\n    string _breed,\n    uint256 _chipId,\n    string _sex,\n    uint256 _birthDate,\n    string _species,\n    string _color,\n    address _owner) public {\n\n    emit AddingPetStarted(_chipId, _owner);\n\n    require(_owner != address(0));\n\n    if(pets[_chipId].owner != address(0)) {\n      emit PetExistsCheckingOwnerShip(_chipId, _owner);\n      require(pets[_chipId].owner == _owner);\n    } else {\n      emit AssigningNewPetToOwner(_chipId, _owner);\n      ownership[_owner].push(_chipId);\n    }\n\n    emit CreatingOrUpdatingPetObject(_chipId, _owner);\n    Pet memory _pet = Pet(\n      _name, _breed, _chipId, _sex, _birthDate, _species,\n      _color, _owner);\n\n    emit AssigningNewPetToPetVault(_chipId, _owner);\n    pets[_chipId] = _pet;\n    emit ReturningPetSaved(_chipId, _owner);\n  }\n\n  function noPets() public view returns (uint256) {\n    return ownership[msg.sender].length;\n  }\n\n}\n",
  "sourcePath": "/Users/vytalk/Projects/petsourceapi/contracts/PetsVault.sol",
  "compiler": {
    "name": "solc",
    "version": "0.4.24+commit.e67f0147.Emscripten.clang"
  },
  "schemaVersion": "2.0.0",
  "updatedAt": "2018-06-13T21:03:01.509Z"
}